:0C08DE00E4F590F5A0F5B012087480FB62
:080800007F647E007D007C0096
:100808008F0B8E0A8D098C08E4FFFEFDFCAB0BAA4A
:0B0818000AA909A808D31208CD40501F
:10082300E4750F01F50EF50DF50CE47FCE7E31FD79
:10083300FCAB0FAA0EA90DA80CC31208CD5017E5E7
:100843000F2401F50FE4350EF50EE4350DF50DE437
:10085300350CF50C80D4E50B24FFF50BE50A34FFCA
:0E086300F50AE50934FFF509E50834FFF5084C
:03087100809D2245
:1008740075A01175B004D2A0C2A1C2A2C2A3D2A411
:10088400C2A5C2B0C2B1D2B212080075A00C75B034
:1008940002C2A0C2A1D2A2D2A3C2A4C2A5C2B0D293
:1008A400B1C2B212080075A02275B001C2A0D2A1D3
:1008B400C2A2C2A3C2A4D2A5D2B0C2B1C2B27F6442
:0908C4007E007D007C00020808A2
:030000000208EA09
:0C08EA00787FE4F6D8FD75810F0208DE6F
:1008CD00EB9FF5F0EA9E42F0E99D42F0E89C45F081
:0108DD0022F8
:00000001FF
