:10086800E4FDFCC3ED9FEE6480F8EC6480985015BD
:10087800E4FBFA0BBB00010ABA03F8BBE8F50DBDAF
:0508880000010C80DE00
:01088D002248
:05088E00D2B21208685F
:10089300C2A2C2A1C2A0C2A5C2A4C2A3C2B2C2B113
:0308A300C2B022BE
:10080000120893D2A0D2A5D2B07FC87E0012086889
:10081000120893D2A4D2A012088ED2A3D2A2D2B12F
:10082000120868120893D2A3D2A2D2B0120868129A
:100830000893D2A1D2A312088ED2A0D2A5D2B1120F
:100840000868120893D2B0D2A2D2A3120868120884
:1008500093D2A1D2B0D2A5120868120893D2A0D226
:08086000A4D2B21208688098CE
:030000000208A64D
:0C08A600787FE4F6D8FD75810702080099
:00000001FF
