:10080000E4FDFCC3ED9FEC9E5015E4FBFA0BBB002E
:0F081000010ABA04F8BBFBF50DBD00010C80E432
:01081F0022B6
:10082000D2A0C2A1C2A2C2A3D2A4C2A5C2B0C2B168
:09083000D2B27FC87E000208006C
:10083900C2A0C2A1D2A2D2A3C2A4C2A5C2B0D2B13F
:09084900C2B27FC87E0002080063
:10085200C2A0D2A1C2A2C2A3C2A4D2A5D2B0C2B126
:09086200C2B27FC87E000208004A
:0908830012082012083902085283
:0C086B00E4F590F5A0F5B012088380FBC6
:030000000208777C
:0C087700787FE4F6D8FD75810702086B5D
:00000001FF
